:02000000642D6D
:100006008312031356089300831614180C28000055
:0E001600072883121308F1007108F00008009B
:06002400000000000800CE
:10002A000830831203135405F1007108003A0319CA
:10003A0050285008D500D50CD513D50CD513D50C9E
:10004A00D5130530F1005108F00071080319312861
:10005A00F00D7010FF3E2B287008D50407100230EF
:10006A00D60003204F08D60003205508D6000320E7
:10007A000530F1005008F000710803194828F00D06
:10008A007010FF3E42287008D5007008D600032081
:10009A000714122096280530F0005208D50070087F
:1000AA0003195B28D50CD513FF3E55285308F000D9
:1000BA00F00D7010F00D7010F00D70107008D5046E
:1000CA0007100230D60003204F08D6000320550837
:1000DA00D60003205208F000F00D7010F00D7010D9
:1000EA00F00D7010E030F0057008D500083070048B
:1000FA00F1007108D50003305205F0007108F004D0
:10010A007008D5007008D60003205108D5005108A0
:10011A00D60003205008D5005008D6000320071443
:04012A001220080097
:10012E000830831203134405F1007108003A0319D5
:10013E00E82807100330D60003204308D60003201A
:10014E00D60103207008CA000530F2007008F100D5
:10015E0072080319B628F10CF113FF3EB02871088E
:10016E00CB00CC01CD01CE014D08CE004C08CD0008
:10017E004B08CC00CB017008F100F10D7110F10DA0
:10018E007110F10D71107108CB040030CC04CD0448
:10019E00CE04D60103207008CA00071412200530C1
:1001AE00F1004A08F00071080319E128F00CF01371
:1001BE00FF3EDB287008CB040030CC04CD04CE0407
:1001CE009129CB01CC01CD01CE0107100330D60011
:1001DE0003204308D6000320D60103207008CA006E
:1001EE000530F1007008C900710803190229C90D04
:1001FE004910FF3EFC287008F100F10CF113F10CD0
:10020E00F113F10CF1137108CB00CC01CD01CE012D
:10021E004D08F3004C08F2004B08F100F001700895
:10022E00CB007108CC007208CD007308CE00D60149
:10023E0003207008CA0003307005F10049087104EC
:10024E00F3007308C900E0307005F2007208F00088
:10025E00F00CF013F00CF013F00CF0137308F00424
:10026E007008C90070084B04F5004C08F6004D08E4
:10027E00F7004E08F8000030F604F704F80475088D
:10028E00CB007608CC007708CD007808CE00770832
:10029E00F3007608F2007508F100F0017008CB004B
:1002AE007108CC007208CD007308CE00D601032071
:1002BE007008CA0070084B04F5004C08F6004D0893
:1002CE00F7004E08F8000030F604F704F80475083D
:1002DE00CB007608CC007708CD007808CE007708E2
:1002EE00F3007608F2007508F100F0017008CB00FB
:1002FE007108CC007208CD007308CE00D601032021
:10030E007008CA00071412204A08CB040030CC042F
:10031E00CD04CE044B08C5004C08C6004D08C700DE
:10032E004E08C8004508F0004608F1004708F200E4
:06033E004808F30008006E
:100344008312031307100230D6000320FF30D600B7
:1003540003204308D6000320071412204408003A5F
:100364000319C92907100330D6000320FE30D60034
:100374000320D60103207008C50007141220E030C2
:100384004505F100710843060319C929B429080079
:10039400063083120313FD00FD0BCE290000080074
:1003A400831203134308003A031DDA29C901F8290B
:1003B4004308013A031DE1290430C900F829430820
:1003C400023A031DE8290830C900F8294308033A12
:1003D400031DEF291030C900F8294308043A031D0E
:1003E400F6291430C900F8291830C9004908CF008B
:1003F4004408D0004508D1004608D2004708D3007D
:080404004808D400152008008F
:10040C00831203134308003A031D1A2A2030CF002D
:10041C004408D0004508D1004608D2004708D30054
:10042C004808D4001520272A2430CF004408D000D7
:10043C004508D1004608D2004708D3004808D4002C
:04044C00152008006F
:1004500083120313C303C403C503C603C7030630D3
:10046000F0004308C900700803193A2AC90D491061
:10047000FF3E342A4408C90407100230D600032086
:100480002A30D60003204908D60003200714122082
:100490004508C900C90D4910C90D4910C90D4910B9
:1004A0004708C90404304805F1007108003A031DEB
:1004B0005A2A491701304805F1007108003A03191A
:1004C000622AC91707100230D60003202930D6004F
:1004D00003204908D6000320071412204608C9004B
:1004E00002304805F1007108003A0319782A4917CB
:1004F00007100230D60003202830D6000320490818
:0A050000D6000320071412200800A3
:10050A008312031307100330D60003203030D600BD
:10051A000320D60103207008BF0007141220BF1958
:10052A00982ABF01BE2A07100330D60003204030A4
:10053A00D6000320D60103207008BF00071412203A
:10054A00BF19AA2A1030BF00BE2A07100330D600EE
:10055A0003205030D6000320D60103207008BF00C4
:10056A0007141220BF19BC2A2030BF00BE2ABE01C0
:10057A003D2B3030BF0707100230D60003203F085A
:10058A00D600032003303D05F0007008C100700852
:10059A00D60003200714122008303D05F100710827
:1005AA00003A031DDB2AF730C100DD2AFF30C10003
:1005BA003F0ACF003708D0003808D1003908D200E6
:1005CA003A08D3004108D40015203C08C100403045
:1005DA003D05F1007108003A031DF42A411707107E
:1005EA000230D600032005303F07D6000320410819
:1005FA00D600032007141220122007100230D6005A
:10060A00032006303F07D6000320C0013C03C20086
:10061A0040084202031C1D2B40083B0784000008C7
:10062A00D60003204008420603191D2BC00A0B2BD3
:10063A0007141220122007103F08303A031D292BF5
:10064A008130D6000320392B3F08403A031D312B55
:10065A008230D6000320392B3F08503A031D392B2C
:10066A008330D6000320392B07141220FF30BE0036
:06067A003E08F00008003C
:10068000831203133A088400800107100330D60058
:1006900003202C30D6000320D60103207008BC00B4
:1006A000071412203C1CB02BFF30BF000710053090
:1006B000D60003202C30D60003200130D6000320C2
:1006C000D601032007141220122007100330D60091
:1006D00003202D30D6000320D60103207008BC0073
:1006E00007141220BC1F8B2B3A088400083000042A
:1006F000F0003A0884007008800007100530D6002A
:1007000003202D30D60003208030D6000320D601F0
:10071000032007141220122007100330D6000320F4
:100720006030D6000320D60103207008BC000714F7
:1007300012203C1DAF2B07303C05F0003A08840026
:100740000008F0043A088400700880003A08840029
:1007500001300005F0003A08840070088000232C66
:100760003A088400800107100330D60003202C30A3
:10077000D6000320D60103207008BC000714122005
:10078000BC1C212CBF0107100530D60003202C30E3
:10079000D60003200230D6000320D6010320071420
:1007A0001220122007100330D60003202D30D6006F
:1007B0000320D60103207008BC00071412203C1F40
:1007C000F82B3A08840008300004F0003A0884004E
:1007D0007008800007100530D60003202D30D600A9
:1007E00003204030D6000320D60103200714122036
:1007F000122007100330D60003207030D6000320EB
:10080000D60103207008BC000714122007303C05F5
:10081000F0003A0884000008F0043A0884007008E8
:1008200080003A088400023000020318202C3A08A5
:10083000840080300004F0003A08840070088000D2
:10084000232CBB01BD2C07100330D60003203F082A
:10085000003A0319332C6530D6000320D60103205B
:100860007008BC003A2C7530D6000320D601032056
:100870007008BC0007141220390884003C0880006E
:100880003C1F4B2C3A08840040300004F0003A082A
:1008900084007008800007100330D60003203F0852
:1008A000003A03195D2C6230D6000320D6010320E4
:1008B0007008BC006130BE00662C7230D600032088
:1008C000D60103207008BC007130BE00071412204E
:1008D000BC1D862C3A08840020300004F0003A0841
:1008E0008400700880003E08C300F730C4009720E1
:1008F00037088400700880007108840A800072083C
:10090000840A80007308840A8000982C3E08C30083
:10091000FF30C400972037088400700880007108F9
:10092000840A80007208840A80007308840A8000A8
:100930000530BE0707100330D60003203E08D6005E
:100940000320BD01390884000003C0003D084002B7
:10095000031CB92CD60103207008BC003D083807E1
:100960008400700880003D0840060319B92CBD0AB8
:10097000A22C07141220FF30BB003B08F000080037
:1009800083160313071107108312071507140711A5
:10099000CA210715CA218030C300FF30C400A2213C
:1009A0003708C3003808C4003908C5003A08C60033
:1009B0003B08C7003C08C800282260303C05BD0049
:1009C00010303C05F1007108103A031DE82C3D156C
:1009D00007100230D60003206030D60003203D0807
:1009E000D600032007141220122007100230D60070
:1009F00003207030D60003203D08D60003200714E2
:100A00001220C301C401C501C601C701F730C800E7
:100A100006220130C300C401C501C601C701F73079
:100A2000C800062260303C05F0009F307004F100E1
:100A30007108DF3A031D212DF730BE00F730BF00EB
:100A40002E2D7108BF3A031D2A2DFF30BE00FF3046
:100A5000BF002E2DFF30BE00F730BF00C301C40120
:100A6000C501C601C7013E08C800D2210130C3003C
:100A7000C401C501C601C7013E08C800D221023029
:100A8000BD003D08C300C401C501C601C7013F0840
:100A9000C800D2213D08053A0319502DBD0A412D49
:0A0AA000C301FF30C400A2210800CA
:100AAA00831203139412831687128711071683126F
:0E0ABA009401403083169400831294160800B5
:100AC800831603178801890183120313860183168D
:100AD80086018312A201A101AB01F430A100D33039
:100AE800A20055250130B7000330B8000330B90023
:100AF8000330BA000130BB002208BC00C02480309B
:100B0800C300FF30C400A221C301FF30C400FF307E
:100B1800C500C600C700F730C80006220130C30070
:100B2800FF30C400FF30C500C600C700F730C8005A
:100B380006220530C3000330C400C501C601C70141
:100B4800F730C800D221C301FF30C400A221093008
:100B5800A3004F30B2002F30B300B401B5014F30BD
:100B6800B7002F30B8000030B9000030BA00233089
:100B7800BB000130BC002108BD0085222C30B70025
:100B88002330B8002030B9002B30BA004023700859
:100B9800B6000030F1002F06031DDC2D71082E066B
:100BA800031DDC2D71082D06031DDC2D2C08033ACE
:100BB800FF30031D0030F1007108F0050319FF2D07
:100BC80023088600A30A1A30FC00F830FD00FD0B4C
:100BD800EB2DFC0BEB2D00003208B7003308B800F2
:100BE8003408B9003508BA002330BB000130BC0016
:0A0BF8002108BD008522C22D002E49
:04400E00F22F000786
:00000001FF
